:020000020000fc
:0100000000ff
:0100010002fc
:0100020001fc
:0100030003f9
:0100040001fa
:0100050002f8
:0100060000f9
:0100070001f7
:0100080002f5
:0100090002f4
:01000a0002f3
:01000b0000f4
:01000c0003f0
:01000d0001f1
:01000e0001f0
:01000f0000f0
:0100100001ee
:0100110001ed
:0100120002eb
:0100130001eb
:0100140002e9
:0100150000ea
:0100160003e6
:0100170001e7
:0100180003e4
:0100190002e4
:01001a0000e5
:01001b0003e1
:01001c0002e1
:01001d0001e1
:01001e0000e1
:01001f0003dd
:0100200001de
:0100210001dd
:0100220001dc
:0100230000dc
:0100240001da
:0100250003d7
:0100260001d8
:0100270003d5
:0100280000d7
:0100290003d3
:01002a0001d4
:01002b0001d3
:01002c0000d3
:01002d0000d2
:01002e0001d0
:01002f0000d0
:0100300001ce
:0100310001cd
:0100320000cd
:0100330002ca
:0100340003c8
:0100350001c9
:0100360000c9
:0100370003c5
:0100380003c4
:0100390000c6
:01003a0003c2
:01003b0001c3
:01003c0003c0
:01003d0003bf
:01003e0000c1
:01003f0000c0
:0100400001be
:0100410003bb
:0100420001bc
:0100430002ba
:0100440000bb
:0100450001b9
:0100460000b9
:0100470000b8
:0100480003b4
:0100490002b4
:01004a0000b5
:01004b0000b4
:01004c0001b2
:01004d0002b0
:01004e0001b0
:01004f0003ad
:0100500002ad
:0100510002ac
:0100520002ab
:0100530002aa
:0100540001aa
:0100550003a7
:0100560000a9
:0100570001a7
:0100580000a7
:0100590001a5
:01005a0002a3
:01005b0002a2
:01005c0003a0
:01005d0002a0
:01005e00029f
:01005f00019f
:01006000039c
:01006100039b
:01006200019c
:01006300019b
:010064000299
:010065000298
:010066000396
:010067000098
:010068000394
:010069000195
:01006a000392
:01006b000094
:01006c000390
:01006d000191
:01006e00038e
:01006f00018f
:01007000008f
:01007100038b
:01007200038a
:01007300008c
:010074000289
:010075000288
:010076000089
:010077000088
:010078000384
:010079000383
:01007a000283
:01007b000084
:01007c000182
:01007d000280
:01007e00027f
:01007f00037d
:01008000007f
:01008100037b
:01008200037a
:010083000379
:010084000378
:010085000179
:010086000178
:010087000078
:010088000374
:010089000076
:01008a000273
:01008b000272
:01008c000271
:01008d000270
:01008e00036e
:01008f00026e
:01009000036c
:01009100006e
:01009200036a
:01009300016b
:010094000368
:010095000367
:010096000168
:010097000167
:010098000067
:010099000165
:01009a000362
:01009b000064
:01009c000162
:01009d000260
:01009e000160
:01009f00015f
:0100a000005f
:0100a100015d
:0100a200015c
:0100a300025a
:0100a4000259
:0100a500005a
:0100a6000158
:0100a7000058
:0100a8000057
:0100a9000353
:0100aa000352
:0100ab000153
:0100ac000053
:0100ad000052
:0100ae000150
:0100af00034d
:0100b000004f
:0100b100034b
:0100b200004d
:0100b3000349
:0100b400014a
:0100b500004a
:0100b6000049
:0100b7000048
:0100b8000344
:0100b9000046
:0100ba000144
:0100bb000341
:0100bc000043
:0100bd000240
:0100be000041
:0100bf000040
:0100c000033c
:0100c100003e
:0100c200023b
:0100c300023a
:0100c4000239
:0100c5000139
:0100c6000039
:0100c7000038
:0100c8000334
:0100c9000036
:0100ca000134
:0100cb000232
:0100cc000330
:0100cd00032f
:0100ce000130
:0100cf00032d
:0100d000012e
:0100d100012d
:0100d200022b
:0100d300022a
:0100d400012a
:0100d500002a
:0100d6000326
:0100d7000325
:0100d8000027
:0100d9000026
:0100da000223
:0100db000123
:0100dc000320
:0100dd000121
:0100de000120
:0100df00011f
:0100e000011e
:0100e100031b
:0100e200021b
:0100e300001c
:0100e400011a
:0100e5000218
:0100e6000019
:0100e7000018
:0100e8000116
:0100e9000016
:0100ea000312
:0100eb000311
:0100ec000112
:0100ed000210
:0100ee000110
:0100ef00010f
:0100f000030c
:0100f100000e
:0100f200020b
:0100f300010b
:0100f4000308
:0100f5000109
:0100f6000306
:0100f7000107
:0100f8000304
:0100f9000204
:0100fa000302
:0100fb000202
:0100fc000102
:0100fd000101
:0100fe000100
:0100ff000000
:00000001FF
